:020000040005F5
:2060000000400120E16F05008B6E0500036405002B6E05002B6E05002B6E05000000000086
:206020000000000000000000000000002B6E05002B6E0500000000002B6E05002B6E0500E8
:206040002B6E05002B6E05002B6E05002B6E05002B6E05002B6E05002B6E05002B6E050050
:206060002B6E05002B6E05002B6E05002B6E05002B6E05002B6E05002B6E05002B6E050030
:206080002B6E05002B6E05002B6E05002B6E05002B6E05002B6E05002B6E05002B6E050010
:2060A0002B6E05002B6E05002B6E05002B6E05002B6E05002B6E05002B6E05002B6E0500F0
:1860C0002B6E05002B6E05002B6E05002B6E05002B6E05002B6E050014
:2060D8007A4A2DE9F84F8146834C5068800806D2106804F15001000C40F0F0000870D2F8AD
:2060F80008B0DFF8CC817D4F641E5E46B00E10D2700E0ED3802084F820004FF6D801A4F8C5
:20611800611007F1700520742868C0F3046000F081FB684D55F8180C07F1E00AC0F34003E4
:206138001BB965490020086001E046F040666349F00EB70E80F001004FF0805300F001009D
:20615800086087F0010000F001008860D3F8F06103F5F87072680090594648469047DFF8AD
:206178006091DAF80070574B39F83B2C07F0FF06101280F0C000B04211D002F0FF02196805
:20619800B04234BF01214FF0FF3140180102864281F4404142EA010129F83B1CEFD13809B1
:2061B800C7F30331C7F384466FF4017200F0F000014304F80810F90CA65401F0F00040F433
:2061D8007040A4F86300DAF8046028681F4620F0100828F4F070286057F8080C5FEA9B60FA
:2061F80002D25FEA5B6017D255F8180C800834BF300AF00800F0F80040F47840A4F86100D7
:20621800207800F07F002070207840F080002070C6F3044000F0FEFA46F3050321783A6896
:2062380041F30500984211D09842B4BF01224FF0FF3201F04001801800F03F020A43227098
:206258002178834241F080012170E7D138683868C5F800801C4957F8080CDAF8140040263C
:20627800C0F3053089F8A30F43F61803E675009A0B8010688168584688471449144A0AE0A4
:20629800105C9378141D834299BF204410F8010C20444078086008684B689842FCD1022830
:2062B800EED10C4901200860BDE8F88FAC4F0050FEFDFFFF2800094094042A4300022043DE
:2062D8006BA00C40342009406AB00C4000600C408C7005009404604206620840181300503A
:2062F8002DE9F047ADF1680D00F004F9002879D0FC2500244FF0FE0AA84642E016994846EF
:206318003246891B491C139100F076F95FFA80F918A907F1100000F0FFFAB9F1000F2ED1A5
:206338001399700BC7B2384600F060F80F998DF860A0814215D1600318A9113000F0ECFACE
:20635800384618A900F0E6FD9DF8461031F0010003D0032918BF07290AD1149800F05FFE2C
:2063780006E08DF8605006F1110018A900F0D4FA8DF8608006F1100018A900F0CDFA641CFF
:2063980064B2E0B200F0B6FC0446002802D500F085FA27E0270334216A46384600F0F6FB4E
:2063B8009DF81000FE28EAD19DF80C100329E6D19DF80D100129E2D19DF81110FC29DED093
:2063D800FE28DCD10B988DF860802C210DAA814600F0DCFB1399484600F002FD0646B6F11C
:2063F800FF3F8BD11AB0BDE8F087FEE72DE9FE4F01903D4800680F1C824614BFB7F1FF3F93
:2064180000206ED0019C604300F094FD7F1EB7FBFAF64FF0FF35B7FBFAF00119C9B2001949
:206438000291C0B206FB0AF1A042A7EB010707F101071FFA87F952DB001B00F1010B02984F
:20645800A04207D15FFA99F619F0FF0F1CBF761CF6B201E05FFA9AF6002E3BD00AFB04F05A
:20647800B04600270090B81BB0F1FF3F05D10298A04202D119F0FF0001D14FF480700199D9
:20649800A1420ABF002F00220C22904217DD1849801A5118491E11F8012F4FEA152C5540E0
:2064B80005F0FF0508226B0832BF6D080F4B83EA5505521EF7D1401E85EA0C05EBD100983D
:2064D80000EB072000F5807000F034FD7F1CB8F10108C8D1641CBBF1010BE4B2AFD185F0E3
:2064F800FF30BDE8FE8FC046000100202083B8ED000000202DE9FF413E4C103C60684169F6
:20651800062088476068416B062088470128F9D16068C1694FF4A06088470127314E324DE8
:20653800376028688008FCD36068C1694FF480708847376028688008FCD34FF08046706975
:2065580020F00F00706103253562206928490568264800224FF00808134600903046CDF80A
:206578000480A8472068456C09224FF0FF3341460A2000903046A847706840F0020070603B
:206598002069026902A9304690470028F8D12068C16B1420884700F01FFDAB208DF80C00E7
:2065B80000F022FD03A8394600F034FC002400B93C4600F011FD4CB1C8210846411E002852
:2065D80089B2FAD100F0B2FA00B1002414B900F065F902E000F076FA044620460090BDE8EA
:2065F800FF81C046282008602820084000093D00006CDC02C40100102DE9F04F15460F4653
:20661800064615F0030FADF5827D55D130480268EC19B5FBF2F1601EB0FBF2F088424BD3CB
:206638002C2849D8B7FBF2F1E8B25143B0FBF2F07C1AC3B2B7FBF2F1C8B21CBF401CC0B2BA
:206658004FF000081C4604EB0009B8B1DFF884B000F0AAFB40902048303800684169600363
:20667800884782464098CBF8008000F08DFC5FFA8AF008BB641CE4B2A145E9DCB8F1000FC8
:206698001AD107B34FF48074BC4288BFBCB230466A46214600F07AFA70B100F085FB824609
:2066B80022462946684600F061FC8146504600F06BFCB9F1000F02D04FF0FF3004E03F1B05
:2066D80026442544E0D1404641B0BDE8F08FC0460001002084046042D80100101B4838B5F9
:2066F8000468B4F1FF3F08BF002400F031FC04282BD12048164B0025103805601868806CFC
:2067180080471448006820B1134800682046FFF7D7FC124812490560124C0A686FF35B422A
:2067380044EA0200086010490868C0F30130012806D10A680D48104040F400320A600860AD
:206758000B4908680028FCD138BDFEE71C130050F001001080012843800520438C21084045
:20677800482003400000390128000940EFFFFCFC0C00684294046042002A4AD05FEA000C3C
:206798008B071CD1830722D1102A08D370B4103A78C978C0103AFBD270BC103238D0042A2E
:2067B8002CD3082A05D30C2A24BF08C908C008C908C008C908C092072AD0920F22E00B781B
:2067D8000370491C401C521E22D08B07F7D1C30714D18307D8D0121F12D308C903801B0C3F
:2067F8004380001D121FF8D20AE008C903701B0A43701B0A83701B0AC370001D121FF4D21C
:20681800121D05D00B780370491C401C521EF9D1604670470146F8B501F01E0201F01F00F9
:20683800162AA4BF01F01F002038194E317801F01F011629A8BF2039814228D0154F3B6853
:20685800154A23F010031C0A4FEAD31C14D323F08004A2F108053C602C680DE014688142D3
:20687800B4BF01244FF0FF340919347801F01F0504F0E004254335708842EFD110685FEAE3
:206898005C0004D3106810683B6052F8080CF8BD066208402800094034200940F8B5B920CB
:2068B8008DF8000000F0A0FB0121684600F0B2FA00F092FB0A2400F005F9002818BFB4F107
:2068D8000104F8D14FF0805000F5DC74D0F8B801016A4FF48070884701270D4E0D4D37601C
:2068F80028688008FCD32068016A4FF4A0608847376028688008FCD32068816906208847AF
:206918002068416B062088470228F9D1F8BDC04628200860282008402DE9FC410F46054654
:2069380001264FF0020800F001F950BB00F0A2FA38BB05F0FF04C4F58074B44288BF341C29
:206958008DF800808DF80350280C8DF80100280A8DF8020000F048FB6846042100F05AFA85
:20697800361B2D1920B93846214600F053FA18B100F032FBBDE8FC8100F02EFB3F19002EC6
:20699800D1D1BDE8FC8130B50024ADF12C0D650369460822284600F055FA684600F094FA21
:2069B80001281FD1284669462C2200F04BFA9DF81200012803D0032818BF072812D19DF8BA
:2069D8000C0003280ED19DF80D0001280AD19DF81100FC2806D0FF2818BFFE2802D10798AD
:2069F80000F01DFB2046411C2B28CCB2CFDB0BB030BD30B5ADF13C0DFFF77CFD60B3002023
:206A180034216A4600F0C2F89DF81100FE2823D10B980699054600F0E3F906990446224645
:206A38002846FFF7E9FDA8B90699600BC4B22046FFF7DCFCFC21029D8DF83410854209D1B9
:206A5800FE208DF834000DA9204600F063FA079800F0E5FAFFF722FF0FB030BDF8B5844636
:206A780040F6FF741CF8013B002210E0481B401E10F8015B7F1E01F8015BF9D103E01CF81B
:206A9800010B01F8010B521C5B08082AEADA5808F5D21CF8010B1CF8015B05F00F07FF1C29
:206AB800C5F30315122F45EA001508D11CF8016B300A24BF1CF8010B60F3DF16BF19AC42C5
:206AD800D4D1F8BDBCB5184DD5F80200009000F08BFA0421684600F09DF9F0B9114C022118
:206AF800204600F0E7F8024600F076FABAB905F10800214607683FB102790B789A420AD1B5
:206B180042794B789A4206D148600068002100B101210846BCBD0830ECE700F05DFA0020EF
:206B3800BCBDC046040100204C7005001FB5154800788DF8040000F057FA134C2068026913
:206B580069464FF0804090470028F7D100F044FA00F04AFA01A8012100F05CF902A801216A
:206B780000F0A8F8024600F037FA002A18BF6FF0010004D19DF808004008E9D2002000907E
:206B98001FBDC0464C700500C40100107CB515460E460446FFF7CAFF98B903208DF8000083
:206BB8008DF80340230C8DF80130200A8DF8020000F01AFA6846042100F02CF918B100F0BA
:206BD8000BFA00207CBD2846314600F073F8024600F002FA002002B901207CBD10B54FF092
:206BF800805000F5DC74D0F8B8014169042088472068416B042088470128F9D12068C1697E
:206C18004FF4A060884701210548064A016010688008FCD3044801604160816010BDC04659
:206C38002820086028200840141A4442B0B50C480C4DA84210D00C480C4CA0420CD0001BE7
:206C5800083CC71054F8080F017855F821206168401C90477F1EF5D100BF00BFB0BDC04647
:206C7800A470050098700500C8700500B870050010B54FF0805000F5DC74D0F8B801016A67
:206C98004FF4A0608847094901200860084908688008FCD320688169042088472068416B3E
:206CB800042088470228F9D110BDC0462820086028200840BCB50F1C054617D00C4C206814
:206CD800826800214FF080409047002808BF4FF0FF300CD02068C26869464FF0804090474B
:206CF8009DF800007F1E05F8010BE8D10020BCBDC401001010B50446ADF1300D20030821E4
:206D18006A46FFF743FF684600F0F2F8012808BF60B20DD0684600F0D7F8012808BF4FF070
:206D3800FF3005D0641CE4B22C2CE7DB6FF001000CB010BD08B5FFF751FF07200A21322275
:206D580000F0AEF8FFF794FF07480849006800F00F0080020860FFF7C3FAFFF714FEFFF75A
:206D780048FE002008BDC04630240340000100200C4808B580F308880949086840F4700098
:206D9800086000BF00BF00F050F908B1FFF74EFF0020FFF7CFFF012000F049F908BDC046BE
:206DB80088ED00E000400120B0B54FF0805000F5EC74D0F8D801094D816828468847C7B2A6
:206DD80057B12068426800212846904720688168284688470028F9D13846B0BD00400340ED
:206DF800FEB50D4606464FF0FF372C2430190C216A46FFF7CBFE50B19DF80000012805D0EB
:206E1800019820B12418A542F0D800E0029F3846FEBDFEE77CB50C1C06460FD0084D2868FD
:206E380016F8011B42684FF0804090472868C26869464FF080409047641EF0D100207CBDB5
:206E5800C4010010F8B517460D46044600F0DBF8002600B101260020311C08BF012014F87C
:206E7800011B7F1E05F8011BF9D108B100F0D1F8F8BDFEE7094808B500788DF8000000F057
:206E9800B3F801216846FFF7C5FF024600F0A4F8002A14BF6FF00200002008BD4D700500CC
:206EB80038B5144669B1074D01230A4683402B60204600F080F82B61204600F07CF8521EAF
:206ED800F5D138BD90200240084910B508300822083911F8013D10F8014DA34218BF0020BB
:206EF80002D1521EF5D1012010BDC0468C70050010B5074C0821083014F8012D10F8013D83
:206F18009A4218BF002002D1491EF5D1012010BD8C70050070B50D460446FFF745FF06464F
:206F3800610301221131284600F020F8304600F02BF870BD05494FF4807201E0835C8B5422
:206F580013465A1E002B92B2F8D1704700000020054800684BF641310001B1EB104F14BF02
:206F78004FF0FF30042070471813005008B5054B303B1B689B699847014A0021116008BDB5
:206F980084046042D801001008B528B103480068426803480121904708BDC046D8010010DB
:206FB80000400340D0F8030020B10022401E01F8012BFBD17047014640F6AA70484302D07E
:206FD80000BF401EFCD1704708B5FFF787FBFFF7CFBEFFF70AFA08BD02494FF480100860FB
:206FF8007047C0469020024002484FF4801110300160704790200240D0F80320C31D084649
:207018001946FFF7B9BBEFF3108072B6704700207047EFF3108062B670470020704708B592
:12703800D0F800D04068804708BD0120704700BFFEE7FE
:20704C00050690FFFF00000000002000C215000000001000C214000000000800EF120000A5
:20706C0000000400EF110000000000000000000043433133783252314F4144204E564D31D3
:08708C000102000302000103F0
:20709800756A050011700500BD6F05000000000002000000040100000001000004FFF00042
:1070B800A870050000000020B07005000401002041
:207FA80000008001100084FFFDFF58003AFFBBF3FFFFFFFFFFFFFFFFFFFFFFFFFFFFFFFF7A
:207FC800FFFFFFFFFFFFFFFFFFFFFFFFFFFFFFFFFFFFFF00FFFFFFFF00FFFFFF00C5C5FF2A
:187FE800000000FF00600500FFFFFFFFFFFFFFFFFFFFFFFFFFFFFFFF2D
:00000001FF
